{
  "_format": "hh-sol-artifact-1",
  "contractName": "NFTMarket",
  "sourceName": "contracts/NFTMarket.sol",
  "abi": [
    {
      "inputs": [],
      "stateMutability": "nonpayable",
      "type": "constructor"
    },
    {
      "anonymous": false,
      "inputs": [
        {
          "indexed": true,
          "internalType": "address",
          "name": "owner",
          "type": "address"
        },
        {
          "indexed": true,
          "internalType": "address",
          "name": "approved",
          "type": "address"
        },
        {
          "indexed": true,
          "internalType": "uint256",
          "name": "tokenId",
          "type": "uint256"
        }
      ],
      "name": "Approval",
      "type": "event"
    },
    {
      "anonymous": false,
      "inputs": [
        {
          "indexed": true,
          "internalType": "address",
          "name": "owner",
          "type": "address"
        },
        {
          "indexed": true,
          "internalType": "address",
          "name": "operator",
          "type": "address"
        },
        {
          "indexed": false,
          "internalType": "bool",
          "name": "approved",
          "type": "bool"
        }
      ],
      "name": "ApprovalForAll",
      "type": "event"
    },
    {
      "anonymous": false,
      "inputs": [
        {
          "indexed": false,
          "internalType": "uint256",
          "name": "tokenID",
          "type": "uint256"
        },
        {
          "indexed": false,
          "internalType": "address",
          "name": "from",
          "type": "address"
        },
        {
          "indexed": false,
          "internalType": "address",
          "name": "to",
          "type": "address"
        },
        {
          "indexed": false,
          "internalType": "string",
          "name": "tokenURI",
          "type": "string"
        },
        {
          "indexed": false,
          "internalType": "uint256",
          "name": "price",
          "type": "uint256"
        }
      ],
      "name": "NFTTransfer",
      "type": "event"
    },
    {
      "anonymous": false,
      "inputs": [
        {
          "indexed": true,
          "internalType": "address",
          "name": "previousOwner",
          "type": "address"
        },
        {
          "indexed": true,
          "internalType": "address",
          "name": "newOwner",
          "type": "address"
        }
      ],
      "name": "OwnershipTransferred",
      "type": "event"
    },
    {
      "anonymous": false,
      "inputs": [
        {
          "indexed": true,
          "internalType": "address",
          "name": "from",
          "type": "address"
        },
        {
          "indexed": true,
          "internalType": "address",
          "name": "to",
          "type": "address"
        },
        {
          "indexed": true,
          "internalType": "uint256",
          "name": "tokenId",
          "type": "uint256"
        }
      ],
      "name": "Transfer",
      "type": "event"
    },
    {
      "inputs": [
        {
          "internalType": "address",
          "name": "to",
          "type": "address"
        },
        {
          "internalType": "uint256",
          "name": "tokenId",
          "type": "uint256"
        }
      ],
      "name": "approve",
      "outputs": [],
      "stateMutability": "nonpayable",
      "type": "function"
    },
    {
      "inputs": [
        {
          "internalType": "address",
          "name": "owner",
          "type": "address"
        }
      ],
      "name": "balanceOf",
      "outputs": [
        {
          "internalType": "uint256",
          "name": "",
          "type": "uint256"
        }
      ],
      "stateMutability": "view",
      "type": "function"
    },
    {
      "inputs": [
        {
          "internalType": "uint256",
          "name": "tokenID",
          "type": "uint256"
        }
      ],
      "name": "buyNFT",
      "outputs": [],
      "stateMutability": "payable",
      "type": "function"
    },
    {
      "inputs": [
        {
          "internalType": "uint256",
          "name": "tokenID",
          "type": "uint256"
        }
      ],
      "name": "cancelListing",
      "outputs": [],
      "stateMutability": "nonpayable",
      "type": "function"
    },
    {
      "inputs": [
        {
          "internalType": "string",
          "name": "tokenURI",
          "type": "string"
        }
      ],
      "name": "createNFT",
      "outputs": [],
      "stateMutability": "nonpayable",
      "type": "function"
    },
    {
      "inputs": [
        {
          "internalType": "uint256",
          "name": "tokenId",
          "type": "uint256"
        }
      ],
      "name": "getApproved",
      "outputs": [
        {
          "internalType": "address",
          "name": "",
          "type": "address"
        }
      ],
      "stateMutability": "view",
      "type": "function"
    },
    {
      "inputs": [
        {
          "internalType": "address",
          "name": "owner",
          "type": "address"
        },
        {
          "internalType": "address",
          "name": "operator",
          "type": "address"
        }
      ],
      "name": "isApprovedForAll",
      "outputs": [
        {
          "internalType": "bool",
          "name": "",
          "type": "bool"
        }
      ],
      "stateMutability": "view",
      "type": "function"
    },
    {
      "inputs": [
        {
          "internalType": "uint256",
          "name": "tokenID",
          "type": "uint256"
        },
        {
          "internalType": "uint256",
          "name": "price",
          "type": "uint256"
        }
      ],
      "name": "listNFT",
      "outputs": [],
      "stateMutability": "nonpayable",
      "type": "function"
    },
    {
      "inputs": [],
      "name": "name",
      "outputs": [
        {
          "internalType": "string",
          "name": "",
          "type": "string"
        }
      ],
      "stateMutability": "view",
      "type": "function"
    },
    {
      "inputs": [],
      "name": "owner",
      "outputs": [
        {
          "internalType": "address",
          "name": "",
          "type": "address"
        }
      ],
      "stateMutability": "view",
      "type": "function"
    },
    {
      "inputs": [
        {
          "internalType": "uint256",
          "name": "tokenId",
          "type": "uint256"
        }
      ],
      "name": "ownerOf",
      "outputs": [
        {
          "internalType": "address",
          "name": "",
          "type": "address"
        }
      ],
      "stateMutability": "view",
      "type": "function"
    },
    {
      "inputs": [],
      "name": "renounceOwnership",
      "outputs": [],
      "stateMutability": "nonpayable",
      "type": "function"
    },
    {
      "inputs": [
        {
          "internalType": "address",
          "name": "from",
          "type": "address"
        },
        {
          "internalType": "address",
          "name": "to",
          "type": "address"
        },
        {
          "internalType": "uint256",
          "name": "tokenId",
          "type": "uint256"
        }
      ],
      "name": "safeTransferFrom",
      "outputs": [],
      "stateMutability": "nonpayable",
      "type": "function"
    },
    {
      "inputs": [
        {
          "internalType": "address",
          "name": "from",
          "type": "address"
        },
        {
          "internalType": "address",
          "name": "to",
          "type": "address"
        },
        {
          "internalType": "uint256",
          "name": "tokenId",
          "type": "uint256"
        },
        {
          "internalType": "bytes",
          "name": "data",
          "type": "bytes"
        }
      ],
      "name": "safeTransferFrom",
      "outputs": [],
      "stateMutability": "nonpayable",
      "type": "function"
    },
    {
      "inputs": [
        {
          "internalType": "address",
          "name": "operator",
          "type": "address"
        },
        {
          "internalType": "bool",
          "name": "approved",
          "type": "bool"
        }
      ],
      "name": "setApprovalForAll",
      "outputs": [],
      "stateMutability": "nonpayable",
      "type": "function"
    },
    {
      "inputs": [
        {
          "internalType": "bytes4",
          "name": "interfaceId",
          "type": "bytes4"
        }
      ],
      "name": "supportsInterface",
      "outputs": [
        {
          "internalType": "bool",
          "name": "",
          "type": "bool"
        }
      ],
      "stateMutability": "view",
      "type": "function"
    },
    {
      "inputs": [],
      "name": "symbol",
      "outputs": [
        {
          "internalType": "string",
          "name": "",
          "type": "string"
        }
      ],
      "stateMutability": "view",
      "type": "function"
    },
    {
      "inputs": [
        {
          "internalType": "uint256",
          "name": "tokenId",
          "type": "uint256"
        }
      ],
      "name": "tokenURI",
      "outputs": [
        {
          "internalType": "string",
          "name": "",
          "type": "string"
        }
      ],
      "stateMutability": "view",
      "type": "function"
    },
    {
      "inputs": [
        {
          "internalType": "address",
          "name": "from",
          "type": "address"
        },
        {
          "internalType": "address",
          "name": "to",
          "type": "address"
        },
        {
          "internalType": "uint256",
          "name": "tokenId",
          "type": "uint256"
        }
      ],
      "name": "transferFrom",
      "outputs": [],
      "stateMutability": "nonpayable",
      "type": "function"
    },
    {
      "inputs": [
        {
          "internalType": "address",
          "name": "newOwner",
          "type": "address"
        }
      ],
      "name": "transferOwnership",
      "outputs": [],
      "stateMutability": "nonpayable",
      "type": "function"
    },
    {
      "inputs": [],
      "name": "withdrawFunds",
      "outputs": [],
      "stateMutability": "nonpayable",
      "type": "function"
    }
  ],
  "bytecode": "0x60806040523480156200001157600080fd5b506040518060400160405280600881526020017f414c4558204e46540000000000000000000000000000000000000000000000008152506040518060400160405280600581526020017f416c656b69000000000000000000000000000000000000000000000000000000815250816000908051906020019062000096929190620001a6565b508060019080519060200190620000af929190620001a6565b505050620000d2620000c6620000d860201b60201c565b620000e060201b60201c565b620002bb565b600033905090565b6000600760009054906101000a900473ffffffffffffffffffffffffffffffffffffffff16905081600760006101000a81548173ffffffffffffffffffffffffffffffffffffffff021916908373ffffffffffffffffffffffffffffffffffffffff1602179055508173ffffffffffffffffffffffffffffffffffffffff168173ffffffffffffffffffffffffffffffffffffffff167f8be0079c531659141344cd1fd0a4f28419497f9722a3daafe3b4186f6b6457e060405160405180910390a35050565b828054620001b49062000285565b90600052602060002090601f016020900481019282620001d8576000855562000224565b82601f10620001f357805160ff191683800117855562000224565b8280016001018555821562000224579182015b828111156200022357825182559160200191906001019062000206565b5b50905062000233919062000237565b5090565b5b808211156200025257600081600090555060010162000238565b5090565b7f4e487b7100000000000000000000000000000000000000000000000000000000600052602260045260246000fd5b600060028204905060018216806200029e57607f821691505b60208210811415620002b557620002b462000256565b5b50919050565b6139b180620002cb6000396000f3fe60806040526004361061012a5760003560e01c806370a08231116100ab578063a22cb4651161006f578063a22cb465146103bb578063b88d4fde146103e4578063c87b56dd1461040d578063da2ed03e1461044a578063e985e9c514610473578063f2fde38b146104b05761012a565b806370a08231146102e8578063715018a6146103255780638da5cb5b1461033c57806394383f141461036757806395d89b41146103905761012a565b806324600fc3116100f257806324600fc314610226578063305a67a81461023d57806342842e0e1461026657806351ed82881461028f5780636352211e146102ab5761012a565b806301ffc9a71461012f57806306fdde031461016c578063081812fc14610197578063095ea7b3146101d457806323b872dd146101fd575b600080fd5b34801561013b57600080fd5b50610156600480360381019061015191906123d0565b6104d9565b6040516101639190612418565b60405180910390f35b34801561017857600080fd5b506101816105bb565b60405161018e91906124cc565b60405180910390f35b3480156101a357600080fd5b506101be60048036038101906101b99190612524565b61064d565b6040516101cb9190612592565b60405180910390f35b3480156101e057600080fd5b506101fb60048036038101906101f691906125d9565b610693565b005b34801561020957600080fd5b50610224600480360381019061021f9190612619565b6107ab565b005b34801561023257600080fd5b5061023b61080b565b005b34801561024957600080fd5b50610264600480360381019061025f9190612524565b6108ac565b005b34801561027257600080fd5b5061028d60048036038101906102889190612619565b610aa1565b005b6102a960048036038101906102a49190612524565b610ac1565b005b3480156102b757600080fd5b506102d260048036038101906102cd9190612524565b610cff565b6040516102df9190612592565b60405180910390f35b3480156102f457600080fd5b5061030f600480360381019061030a919061266c565b610db1565b60405161031c91906126a8565b60405180910390f35b34801561033157600080fd5b5061033a610e69565b005b34801561034857600080fd5b50610351610e7d565b60405161035e9190612592565b60405180910390f35b34801561037357600080fd5b5061038e600480360381019061038991906126c3565b610ea7565b005b34801561039c57600080fd5b506103a5610fc8565b6040516103b291906124cc565b60405180910390f35b3480156103c757600080fd5b506103e260048036038101906103dd919061272f565b61105a565b005b3480156103f057600080fd5b5061040b600480360381019061040691906128a4565b611070565b005b34801561041957600080fd5b50610434600480360381019061042f9190612524565b6110d2565b60405161044191906124cc565b60405180910390f35b34801561045657600080fd5b50610471600480360381019061046c9190612987565b6111e5565b005b34801561047f57600080fd5b5061049a600480360381019061049591906129d4565b61129d565b6040516104a79190612418565b60405180910390f35b3480156104bc57600080fd5b506104d760048036038101906104d2919061266c565b611331565b005b60007f80ac58cd000000000000000000000000000000000000000000000000000000007bffffffffffffffffffffffffffffffffffffffffffffffffffffffff1916827bffffffffffffffffffffffffffffffffffffffffffffffffffffffff191614806105a457507f5b5e139f000000000000000000000000000000000000000000000000000000007bffffffffffffffffffffffffffffffffffffffffffffffffffffffff1916827bffffffffffffffffffffffffffffffffffffffffffffffffffffffff1916145b806105b457506105b3826113b5565b5b9050919050565b6060600080546105ca90612a43565b80601f01602080910402602001604051908101604052809291908181526020018280546105f690612a43565b80156106435780601f1061061857610100808354040283529160200191610643565b820191906000526020600020905b81548152906001019060200180831161062657829003601f168201915b5050505050905090565b60006106588261141f565b6004600083815260200190815260200160002060009054906101000a900473ffffffffffffffffffffffffffffffffffffffff169050919050565b600061069e82610cff565b90508073ffffffffffffffffffffffffffffffffffffffff168373ffffffffffffffffffffffffffffffffffffffff16141561070f576040517f08c379a000000000000000000000000000000000000000000000000000000000815260040161070690612ae7565b60405180910390fd5b8073ffffffffffffffffffffffffffffffffffffffff1661072e61146a565b73ffffffffffffffffffffffffffffffffffffffff16148061075d575061075c8161075761146a565b61129d565b5b61079c576040517f08c379a000000000000000000000000000000000000000000000000000000000815260040161079390612b79565b60405180910390fd5b6107a68383611472565b505050565b6107bc6107b661146a565b8261152b565b6107fb576040517f08c379a00000000000000000000000000000000000000000000000000000000081526004016107f290612c0b565b60405180910390fd5b6108068383836115c0565b505050565b610813611827565b60004790506000811161085b576040517f08c379a000000000000000000000000000000000000000000000000000000000815260040161085290612c77565b60405180910390fd5b610863610e7d565b73ffffffffffffffffffffffffffffffffffffffff166108fc829081150290604051600060405180830381858888f193505050501580156108a8573d6000803e3d6000fd5b5050565b600060096000838152602001908152602001600020604051806040016040529081600082015481526020016001820160009054906101000a900473ffffffffffffffffffffffffffffffffffffffff1673ffffffffffffffffffffffffffffffffffffffff1673ffffffffffffffffffffffffffffffffffffffff168152505090506000816000015111610975576040517f08c379a000000000000000000000000000000000000000000000000000000000815260040161096c90612d09565b60405180910390fd5b3373ffffffffffffffffffffffffffffffffffffffff16816020015173ffffffffffffffffffffffffffffffffffffffff16146109e7576040517f08c379a00000000000000000000000000000000000000000000000000000000081526004016109de90612d9b565b60405180910390fd5b3073ffffffffffffffffffffffffffffffffffffffff166323b872dd3033856040518463ffffffff1660e01b8152600401610a2493929190612dbb565b600060405180830381600087803b158015610a3e57600080fd5b505af1158015610a52573d6000803e3d6000fd5b50505050610a5f826118a5565b7f705332a8918666802fc1504f63ff1f002a5f6cedd30d59ad7ae0b5281aeb8dca8230336000604051610a959493929190612e5d565b60405180910390a15050565b610abc83838360405180602001604052806000815250611070565b505050565b600060096000838152602001908152602001600020604051806040016040529081600082015481526020016001820160009054906101000a900473ffffffffffffffffffffffffffffffffffffffff1673ffffffffffffffffffffffffffffffffffffffff1673ffffffffffffffffffffffffffffffffffffffff168152505090506000816000015111610b8a576040517f08c379a0000000000000000000000000000000000000000000000000000000008152600401610b8190612d09565b60405180910390fd5b80600001513414610bd0576040517f08c379a0000000000000000000000000000000000000000000000000000000008152600401610bc790612f01565b60405180910390fd5b3073ffffffffffffffffffffffffffffffffffffffff166323b872dd3033856040518463ffffffff1660e01b8152600401610c0d93929190612dbb565b600060405180830381600087803b158015610c2757600080fd5b505af1158015610c3b573d6000803e3d6000fd5b50505050610c48826118a5565b806020015173ffffffffffffffffffffffffffffffffffffffff166108fc610c916064610c83605f866000015161191a90919063ffffffff16565b61193090919063ffffffff16565b9081150290604051600060405180830381858888f19350505050158015610cbc573d6000803e3d6000fd5b507f705332a8918666802fc1504f63ff1f002a5f6cedd30d59ad7ae0b5281aeb8dca8230336000604051610cf39493929190612e5d565b60405180910390a15050565b6000806002600084815260200190815260200160002060009054906101000a900473ffffffffffffffffffffffffffffffffffffffff169050600073ffffffffffffffffffffffffffffffffffffffff168173ffffffffffffffffffffffffffffffffffffffff161415610da8576040517f08c379a0000000000000000000000000000000000000000000000000000000008152600401610d9f90612f6d565b60405180910390fd5b80915050919050565b60008073ffffffffffffffffffffffffffffffffffffffff168273ffffffffffffffffffffffffffffffffffffffff161415610e22576040517f08c379a0000000000000000000000000000000000000000000000000000000008152600401610e1990612fff565b60405180910390fd5b600360008373ffffffffffffffffffffffffffffffffffffffff1673ffffffffffffffffffffffffffffffffffffffff168152602001908152602001600020549050919050565b610e71611827565b610e7b6000611946565b565b6000600760009054906101000a900473ffffffffffffffffffffffffffffffffffffffff16905090565b60008111610eea576040517f08c379a0000000000000000000000000000000000000000000000000000000008152600401610ee190613091565b60405180910390fd5b610ef53330846107ab565b60405180604001604052808281526020013373ffffffffffffffffffffffffffffffffffffffff16815250600960008481526020019081526020016000206000820151816000015560208201518160010160006101000a81548173ffffffffffffffffffffffffffffffffffffffff021916908373ffffffffffffffffffffffffffffffffffffffff1602179055509050507f705332a8918666802fc1504f63ff1f002a5f6cedd30d59ad7ae0b5281aeb8dca82333084604051610fbc94939291906130b1565b60405180910390a15050565b606060018054610fd790612a43565b80601f016020809104026020016040519081016040528092919081815260200182805461100390612a43565b80156110505780601f1061102557610100808354040283529160200191611050565b820191906000526020600020905b81548152906001019060200180831161103357829003601f168201915b5050505050905090565b61106c61106561146a565b8383611a0c565b5050565b61108161107b61146a565b8361152b565b6110c0576040517f08c379a00000000000000000000000000000000000000000000000000000000081526004016110b790612c0b565b60405180910390fd5b6110cc84848484611b79565b50505050565b60606110dd8261141f565b60006006600084815260200190815260200160002080546110fd90612a43565b80601f016020809104026020016040519081016040528092919081815260200182805461112990612a43565b80156111765780601f1061114b57610100808354040283529160200191611176565b820191906000526020600020905b81548152906001019060200180831161115957829003601f168201915b505050505090506000611187611bd5565b905060008151141561119d5781925050506111e0565b6000825111156111d25780826040516020016111ba929190613145565b604051602081830303815290604052925050506111e0565b6111db84611bec565b925050505b919050565b6111ef6008611c54565b60006111fb6008611c6a565b90506112073382611c78565b6112558184848080601f016020809104026020016040519081016040528093929190818152602001838380828437600081840152601f19601f82011690508083019250505050505050611c96565b7f705332a8918666802fc1504f63ff1f002a5f6cedd30d59ad7ae0b5281aeb8dca816000338686600060405161129096959493929190613196565b60405180910390a1505050565b6000600560008473ffffffffffffffffffffffffffffffffffffffff1673ffffffffffffffffffffffffffffffffffffffff16815260200190815260200160002060008373ffffffffffffffffffffffffffffffffffffffff1673ffffffffffffffffffffffffffffffffffffffff16815260200190815260200160002060009054906101000a900460ff16905092915050565b611339611827565b600073ffffffffffffffffffffffffffffffffffffffff168173ffffffffffffffffffffffffffffffffffffffff1614156113a9576040517f08c379a00000000000000000000000000000000000000000000000000000000081526004016113a090613264565b60405180910390fd5b6113b281611946565b50565b60007f01ffc9a7000000000000000000000000000000000000000000000000000000007bffffffffffffffffffffffffffffffffffffffffffffffffffffffff1916827bffffffffffffffffffffffffffffffffffffffffffffffffffffffff1916149050919050565b61142881611d0a565b611467576040517f08c379a000000000000000000000000000000000000000000000000000000000815260040161145e90612f6d565b60405180910390fd5b50565b600033905090565b816004600083815260200190815260200160002060006101000a81548173ffffffffffffffffffffffffffffffffffffffff021916908373ffffffffffffffffffffffffffffffffffffffff160217905550808273ffffffffffffffffffffffffffffffffffffffff166114e583610cff565b73ffffffffffffffffffffffffffffffffffffffff167f8c5be1e5ebec7d5bd14f71427d1e84f3dd0314c0f7b2291e5b200ac8c7c3b92560405160405180910390a45050565b60008061153783610cff565b90508073ffffffffffffffffffffffffffffffffffffffff168473ffffffffffffffffffffffffffffffffffffffff1614806115795750611578818561129d565b5b806115b757508373ffffffffffffffffffffffffffffffffffffffff1661159f8461064d565b73ffffffffffffffffffffffffffffffffffffffff16145b91505092915050565b8273ffffffffffffffffffffffffffffffffffffffff166115e082610cff565b73ffffffffffffffffffffffffffffffffffffffff1614611636576040517f08c379a000000000000000000000000000000000000000000000000000000000815260040161162d906132f6565b60405180910390fd5b600073ffffffffffffffffffffffffffffffffffffffff168273ffffffffffffffffffffffffffffffffffffffff1614156116a6576040517f08c379a000000000000000000000000000000000000000000000000000000000815260040161169d90613388565b60405180910390fd5b6116b1838383611d76565b6116bc600082611472565b6001600360008573ffffffffffffffffffffffffffffffffffffffff1673ffffffffffffffffffffffffffffffffffffffff168152602001908152602001600020600082825461170c91906133d7565b925050819055506001600360008473ffffffffffffffffffffffffffffffffffffffff1673ffffffffffffffffffffffffffffffffffffffff1681526020019081526020016000206000828254611763919061340b565b92505081905550816002600083815260200190815260200160002060006101000a81548173ffffffffffffffffffffffffffffffffffffffff021916908373ffffffffffffffffffffffffffffffffffffffff160217905550808273ffffffffffffffffffffffffffffffffffffffff168473ffffffffffffffffffffffffffffffffffffffff167fddf252ad1be2c89b69c2b068fc378daa952ba7f163c4a11628f55a4df523b3ef60405160405180910390a4611822838383611d7b565b505050565b61182f61146a565b73ffffffffffffffffffffffffffffffffffffffff1661184d610e7d565b73ffffffffffffffffffffffffffffffffffffffff16146118a3576040517f08c379a000000000000000000000000000000000000000000000000000000000815260040161189a906134ad565b60405180910390fd5b565b6000600960008381526020019081526020016000206000018190555060006009600083815260200190815260200160002060010160006101000a81548173ffffffffffffffffffffffffffffffffffffffff021916908373ffffffffffffffffffffffffffffffffffffffff16021790555050565b6000818361192891906134cd565b905092915050565b6000818361193e9190613556565b905092915050565b6000600760009054906101000a900473ffffffffffffffffffffffffffffffffffffffff16905081600760006101000a81548173ffffffffffffffffffffffffffffffffffffffff021916908373ffffffffffffffffffffffffffffffffffffffff1602179055508173ffffffffffffffffffffffffffffffffffffffff168173ffffffffffffffffffffffffffffffffffffffff167f8be0079c531659141344cd1fd0a4f28419497f9722a3daafe3b4186f6b6457e060405160405180910390a35050565b8173ffffffffffffffffffffffffffffffffffffffff168373ffffffffffffffffffffffffffffffffffffffff161415611a7b576040517f08c379a0000000000000000000000000000000000000000000000000000000008152600401611a72906135d3565b60405180910390fd5b80600560008573ffffffffffffffffffffffffffffffffffffffff1673ffffffffffffffffffffffffffffffffffffffff16815260200190815260200160002060008473ffffffffffffffffffffffffffffffffffffffff1673ffffffffffffffffffffffffffffffffffffffff16815260200190815260200160002060006101000a81548160ff0219169083151502179055508173ffffffffffffffffffffffffffffffffffffffff168373ffffffffffffffffffffffffffffffffffffffff167f17307eab39ab6107e8899845ad3d59bd9653f200f220920489ca2b5937696c3183604051611b6c9190612418565b60405180910390a3505050565b611b848484846115c0565b611b9084848484611d80565b611bcf576040517f08c379a0000000000000000000000000000000000000000000000000000000008152600401611bc690613665565b60405180910390fd5b50505050565b606060405180602001604052806000815250905090565b6060611bf78261141f565b6000611c01611bd5565b90506000815111611c215760405180602001604052806000815250611c4c565b80611c2b84611f08565b604051602001611c3c929190613145565b6040516020818303038152906040525b915050919050565b6001816000016000828254019250508190555050565b600081600001549050919050565b611c92828260405180602001604052806000815250612069565b5050565b611c9f82611d0a565b611cde576040517f08c379a0000000000000000000000000000000000000000000000000000000008152600401611cd5906136f7565b60405180910390fd5b80600660008481526020019081526020016000209080519060200190611d059291906122c1565b505050565b60008073ffffffffffffffffffffffffffffffffffffffff166002600084815260200190815260200160002060009054906101000a900473ffffffffffffffffffffffffffffffffffffffff1673ffffffffffffffffffffffffffffffffffffffff1614159050919050565b505050565b505050565b6000611da18473ffffffffffffffffffffffffffffffffffffffff166120c4565b15611efb578373ffffffffffffffffffffffffffffffffffffffff1663150b7a02611dca61146a565b8786866040518563ffffffff1660e01b8152600401611dec949392919061376c565b6020604051808303816000875af1925050508015611e2857506040513d601f19601f82011682018060405250810190611e2591906137cd565b60015b611eab573d8060008114611e58576040519150601f19603f3d011682016040523d82523d6000602084013e611e5d565b606091505b50600081511415611ea3576040517f08c379a0000000000000000000000000000000000000000000000000000000008152600401611e9a90613665565b60405180910390fd5b805181602001fd5b63150b7a0260e01b7bffffffffffffffffffffffffffffffffffffffffffffffffffffffff1916817bffffffffffffffffffffffffffffffffffffffffffffffffffffffff191614915050611f00565b600190505b949350505050565b60606000821415611f50576040518060400160405280600181526020017f30000000000000000000000000000000000000000000000000000000000000008152509050612064565b600082905060005b60008214611f82578080611f6b906137fa565b915050600a82611f7b9190613556565b9150611f58565b60008167ffffffffffffffff811115611f9e57611f9d612779565b5b6040519080825280601f01601f191660200182016040528015611fd05781602001600182028036833780820191505090505b5090505b6000851461205d57600182611fe991906133d7565b9150600a85611ff89190613843565b6030612004919061340b565b60f81b81838151811061201a57612019613874565b5b60200101907effffffffffffffffffffffffffffffffffffffffffffffffffffffffffffff1916908160001a905350600a856120569190613556565b9450611fd4565b8093505050505b919050565b61207383836120e7565b6120806000848484611d80565b6120bf576040517f08c379a00000000000000000000000000000000000000000000000000000000081526004016120b690613665565b60405180910390fd5b505050565b6000808273ffffffffffffffffffffffffffffffffffffffff163b119050919050565b600073ffffffffffffffffffffffffffffffffffffffff168273ffffffffffffffffffffffffffffffffffffffff161415612157576040517f08c379a000000000000000000000000000000000000000000000000000000000815260040161214e906138ef565b60405180910390fd5b61216081611d0a565b156121a0576040517f08c379a00000000000000000000000000000000000000000000000000000000081526004016121979061395b565b60405180910390fd5b6121ac60008383611d76565b6001600360008473ffffffffffffffffffffffffffffffffffffffff1673ffffffffffffffffffffffffffffffffffffffff16815260200190815260200160002060008282546121fc919061340b565b92505081905550816002600083815260200190815260200160002060006101000a81548173ffffffffffffffffffffffffffffffffffffffff021916908373ffffffffffffffffffffffffffffffffffffffff160217905550808273ffffffffffffffffffffffffffffffffffffffff16600073ffffffffffffffffffffffffffffffffffffffff167fddf252ad1be2c89b69c2b068fc378daa952ba7f163c4a11628f55a4df523b3ef60405160405180910390a46122bd60008383611d7b565b5050565b8280546122cd90612a43565b90600052602060002090601f0160209004810192826122ef5760008555612336565b82601f1061230857805160ff1916838001178555612336565b82800160010185558215612336579182015b8281111561233557825182559160200191906001019061231a565b5b5090506123439190612347565b5090565b5b80821115612360576000816000905550600101612348565b5090565b6000604051905090565b600080fd5b600080fd5b60007fffffffff0000000000000000000000000000000000000000000000000000000082169050919050565b6123ad81612378565b81146123b857600080fd5b50565b6000813590506123ca816123a4565b92915050565b6000602082840312156123e6576123e561236e565b5b60006123f4848285016123bb565b91505092915050565b60008115159050919050565b612412816123fd565b82525050565b600060208201905061242d6000830184612409565b92915050565b600081519050919050565b600082825260208201905092915050565b60005b8381101561246d578082015181840152602081019050612452565b8381111561247c576000848401525b50505050565b6000601f19601f8301169050919050565b600061249e82612433565b6124a8818561243e565b93506124b881856020860161244f565b6124c181612482565b840191505092915050565b600060208201905081810360008301526124e68184612493565b905092915050565b6000819050919050565b612501816124ee565b811461250c57600080fd5b50565b60008135905061251e816124f8565b92915050565b60006020828403121561253a5761253961236e565b5b60006125488482850161250f565b91505092915050565b600073ffffffffffffffffffffffffffffffffffffffff82169050919050565b600061257c82612551565b9050919050565b61258c81612571565b82525050565b60006020820190506125a76000830184612583565b92915050565b6125b681612571565b81146125c157600080fd5b50565b6000813590506125d3816125ad565b92915050565b600080604083850312156125f0576125ef61236e565b5b60006125fe858286016125c4565b925050602061260f8582860161250f565b9150509250929050565b6000806000606084860312156126325761263161236e565b5b6000612640868287016125c4565b9350506020612651868287016125c4565b92505060406126628682870161250f565b9150509250925092565b6000602082840312156126825761268161236e565b5b6000612690848285016125c4565b91505092915050565b6126a2816124ee565b82525050565b60006020820190506126bd6000830184612699565b92915050565b600080604083850312156126da576126d961236e565b5b60006126e88582860161250f565b92505060206126f98582860161250f565b9150509250929050565b61270c816123fd565b811461271757600080fd5b50565b60008135905061272981612703565b92915050565b600080604083850312156127465761274561236e565b5b6000612754858286016125c4565b92505060206127658582860161271a565b9150509250929050565b600080fd5b600080fd5b7f4e487b7100000000000000000000000000000000000000000000000000000000600052604160045260246000fd5b6127b182612482565b810181811067ffffffffffffffff821117156127d0576127cf612779565b5b80604052505050565b60006127e3612364565b90506127ef82826127a8565b919050565b600067ffffffffffffffff82111561280f5761280e612779565b5b61281882612482565b9050602081019050919050565b82818337600083830152505050565b6000612847612842846127f4565b6127d9565b90508281526020810184848401111561286357612862612774565b5b61286e848285612825565b509392505050565b600082601f83011261288b5761288a61276f565b5b813561289b848260208601612834565b91505092915050565b600080600080608085870312156128be576128bd61236e565b5b60006128cc878288016125c4565b94505060206128dd878288016125c4565b93505060406128ee8782880161250f565b925050606085013567ffffffffffffffff81111561290f5761290e612373565b5b61291b87828801612876565b91505092959194509250565b600080fd5b600080fd5b60008083601f8401126129475761294661276f565b5b8235905067ffffffffffffffff81111561296457612963612927565b5b6020830191508360018202830111156129805761297f61292c565b5b9250929050565b6000806020838503121561299e5761299d61236e565b5b600083013567ffffffffffffffff8111156129bc576129bb612373565b5b6129c885828601612931565b92509250509250929050565b600080604083850312156129eb576129ea61236e565b5b60006129f9858286016125c4565b9250506020612a0a858286016125c4565b9150509250929050565b7f4e487b7100000000000000000000000000000000000000000000000000000000600052602260045260246000fd5b60006002820490506001821680612a5b57607f821691505b60208210811415612a6f57612a6e612a14565b5b50919050565b7f4552433732313a20617070726f76616c20746f2063757272656e74206f776e6560008201527f7200000000000000000000000000000000000000000000000000000000000000602082015250565b6000612ad160218361243e565b9150612adc82612a75565b604082019050919050565b60006020820190508181036000830152612b0081612ac4565b9050919050565b7f4552433732313a20617070726f76652063616c6c6572206973206e6f7420746f60008201527f6b656e206f776e6572206e6f7220617070726f76656420666f7220616c6c0000602082015250565b6000612b63603e8361243e565b9150612b6e82612b07565b604082019050919050565b60006020820190508181036000830152612b9281612b56565b9050919050565b7f4552433732313a2063616c6c6572206973206e6f7420746f6b656e206f776e6560008201527f72206e6f7220617070726f766564000000000000000000000000000000000000602082015250565b6000612bf5602e8361243e565b9150612c0082612b99565b604082019050919050565b60006020820190508181036000830152612c2481612be8565b9050919050565b7f4e46544d61726b65743a2062616c616e6365206973207a65726f000000000000600082015250565b6000612c61601a8361243e565b9150612c6c82612c2b565b602082019050919050565b60006020820190508181036000830152612c9081612c54565b9050919050565b7f4e46544d61726b65743a206e6674206e6f74206c697374656420666f7220736160008201527f6c65000000000000000000000000000000000000000000000000000000000000602082015250565b6000612cf360228361243e565b9150612cfe82612c97565b604082019050919050565b60006020820190508181036000830152612d2281612ce6565b9050919050565b7f4e46544d61726b65743a20796f7520617265206e6f74207468652073656c6c6560008201527f7200000000000000000000000000000000000000000000000000000000000000602082015250565b6000612d8560218361243e565b9150612d9082612d29565b604082019050919050565b60006020820190508181036000830152612db481612d78565b9050919050565b6000606082019050612dd06000830186612583565b612ddd6020830185612583565b612dea6040830184612699565b949350505050565b50565b6000612e0260008361243e565b9150612e0d82612df2565b600082019050919050565b6000819050919050565b6000819050919050565b6000612e47612e42612e3d84612e18565b612e22565b6124ee565b9050919050565b612e5781612e2c565b82525050565b600060a082019050612e726000830187612699565b612e7f6020830186612583565b612e8c6040830185612583565b8181036060830152612e9d81612df5565b9050612eac6080830184612e4e565b95945050505050565b7f4e46544d61726b65743a20696e636f7272656374207072696365000000000000600082015250565b6000612eeb601a8361243e565b9150612ef682612eb5565b602082019050919050565b60006020820190508181036000830152612f1a81612ede565b9050919050565b7f4552433732313a20696e76616c696420746f6b656e2049440000000000000000600082015250565b6000612f5760188361243e565b9150612f6282612f21565b602082019050919050565b60006020820190508181036000830152612f8681612f4a565b9050919050565b7f4552433732313a2061646472657373207a65726f206973206e6f74206120766160008201527f6c6964206f776e65720000000000000000000000000000000000000000000000602082015250565b6000612fe960298361243e565b9150612ff482612f8d565b604082019050919050565b6000602082019050818103600083015261301881612fdc565b9050919050565b7f4e46544d61726b65743a205072696365206d757374206265206772656174657260008201527f207468616e203000000000000000000000000000000000000000000000000000602082015250565b600061307b60278361243e565b91506130868261301f565b604082019050919050565b600060208201905081810360008301526130aa8161306e565b9050919050565b600060a0820190506130c66000830187612699565b6130d36020830186612583565b6130e06040830185612583565b81810360608301526130f181612df5565b90506131006080830184612699565b95945050505050565b600081905092915050565b600061311f82612433565b6131298185613109565b935061313981856020860161244f565b80840191505092915050565b60006131518285613114565b915061315d8284613114565b91508190509392505050565b6000613175838561243e565b9350613182838584612825565b61318b83612482565b840190509392505050565b600060a0820190506131ab6000830189612699565b6131b86020830188612583565b6131c56040830187612583565b81810360608301526131d8818587613169565b90506131e76080830184612e4e565b979650505050505050565b7f4f776e61626c653a206e6577206f776e657220697320746865207a65726f206160008201527f6464726573730000000000000000000000000000000000000000000000000000602082015250565b600061324e60268361243e565b9150613259826131f2565b604082019050919050565b6000602082019050818103600083015261327d81613241565b9050919050565b7f4552433732313a207472616e736665722066726f6d20696e636f72726563742060008201527f6f776e6572000000000000000000000000000000000000000000000000000000602082015250565b60006132e060258361243e565b91506132eb82613284565b604082019050919050565b6000602082019050818103600083015261330f816132d3565b9050919050565b7f4552433732313a207472616e7366657220746f20746865207a65726f2061646460008201527f7265737300000000000000000000000000000000000000000000000000000000602082015250565b600061337260248361243e565b915061337d82613316565b604082019050919050565b600060208201905081810360008301526133a181613365565b9050919050565b7f4e487b7100000000000000000000000000000000000000000000000000000000600052601160045260246000fd5b60006133e2826124ee565b91506133ed836124ee565b925082821015613400576133ff6133a8565b5b828203905092915050565b6000613416826124ee565b9150613421836124ee565b9250827fffffffffffffffffffffffffffffffffffffffffffffffffffffffffffffffff03821115613456576134556133a8565b5b828201905092915050565b7f4f776e61626c653a2063616c6c6572206973206e6f7420746865206f776e6572600082015250565b600061349760208361243e565b91506134a282613461565b602082019050919050565b600060208201905081810360008301526134c68161348a565b9050919050565b60006134d8826124ee565b91506134e3836124ee565b9250817fffffffffffffffffffffffffffffffffffffffffffffffffffffffffffffffff048311821515161561351c5761351b6133a8565b5b828202905092915050565b7f4e487b7100000000000000000000000000000000000000000000000000000000600052601260045260246000fd5b6000613561826124ee565b915061356c836124ee565b92508261357c5761357b613527565b5b828204905092915050565b7f4552433732313a20617070726f766520746f2063616c6c657200000000000000600082015250565b60006135bd60198361243e565b91506135c882613587565b602082019050919050565b600060208201905081810360008301526135ec816135b0565b9050919050565b7f4552433732313a207472616e7366657220746f206e6f6e20455243373231526560008201527f63656976657220696d706c656d656e7465720000000000000000000000000000602082015250565b600061364f60328361243e565b915061365a826135f3565b604082019050919050565b6000602082019050818103600083015261367e81613642565b9050919050565b7f45524337323155524953746f726167653a2055524920736574206f66206e6f6e60008201527f6578697374656e7420746f6b656e000000000000000000000000000000000000602082015250565b60006136e1602e8361243e565b91506136ec82613685565b604082019050919050565b60006020820190508181036000830152613710816136d4565b9050919050565b600081519050919050565b600082825260208201905092915050565b600061373e82613717565b6137488185613722565b935061375881856020860161244f565b61376181612482565b840191505092915050565b60006080820190506137816000830187612583565b61378e6020830186612583565b61379b6040830185612699565b81810360608301526137ad8184613733565b905095945050505050565b6000815190506137c7816123a4565b92915050565b6000602082840312156137e3576137e261236e565b5b60006137f1848285016137b8565b91505092915050565b6000613805826124ee565b91507fffffffffffffffffffffffffffffffffffffffffffffffffffffffffffffffff821415613838576138376133a8565b5b600182019050919050565b600061384e826124ee565b9150613859836124ee565b92508261386957613868613527565b5b828206905092915050565b7f4e487b7100000000000000000000000000000000000000000000000000000000600052603260045260246000fd5b7f4552433732313a206d696e7420746f20746865207a65726f2061646472657373600082015250565b60006138d960208361243e565b91506138e4826138a3565b602082019050919050565b60006020820190508181036000830152613908816138cc565b9050919050565b7f4552433732313a20746f6b656e20616c7265616479206d696e74656400000000600082015250565b6000613945601c8361243e565b91506139508261390f565b602082019050919050565b6000602082019050818103600083015261397481613938565b905091905056fea2646970667358221220bb6449ea7d4e0802bcfff588383bf83b871c5c130da00c23f1eec993a9ee41ca64736f6c634300080b0033",
  "linkReferences": {},
  "deployedLinkReferences": {}
}